C51 COMPILER V9.52.0.0   BZ                                                                10/12/2018 19:52:29 PAGE 1   


C51 COMPILER V9.52.0.0, COMPILATION OF MODULE BZ
OBJECT MODULE PLACED IN BZ.OBJ
COMPILER INVOKED BY: C:\Keil\C51\BIN\C51.EXE BZ.c BROWSE DEBUG OBJECTEXTEND TABS(2)

line level    source

*** WARNING C500 IN LINE 1 OF BZ.c: LICENSE ERROR (R207(3): REGISTRY READ ERROR)

   1          #include <STC12C5A60S2.H>
   2          
   3          #define uint unsigned int
   4          #define uchar unsigned char
   5          
   6          // bit bizhan_mode ;//避障模式
   7          // bit guizhong_mode ;//归中模式
   8          
   9          sbit PWMOUT = P1^7 ;//PWM输出引脚
  10          
  11          sbit L_redlight = P1^2;//红外传感器
  12          sbit R_redlight = P1^3;
  13          
  14          sbit key1 = P3^2;//独立按键
  15          sbit key2 = P3^3;
  16          
  17          sbit SMG_1 = P2^3;//数码管使能脚
  18          sbit SMG_2 = P2^2;
  19          
  20          int T0NUM ;//定时器中断次数累加值
  21          int JD ;//角度
  22          
  23          void delay(int NUM);
  24          
  25          #include "DUOJI.H"
  26          #include "ADC.H"
  27          #include "REDLIGHT.H"
  28          //###################################
  29          void delay(int NUM)//延迟函数
  30          {
  31   1          int i , j ;
  32   1          for(i=0 ; i<NUM ; i++)
  33   1              for(j=0 ; j<120 ; j++);
  34   1      }
  35          //####################################
  36          void init()//全局初始化
  37          {
  38   1          key1 = 1;//按键电位置高
  39   1          key2 = 1;
  40   1      
  41   1          // guizhong_mode = 1 ;
  42   1          // guizhong_mode = 1 ;
  43   1        
  44   1          JD = 90 ;//默认角度归中
  45   1      
  46   1          SMG_1 = 1 ;//关闭两个数码管使能
  47   1          SMG_2 = 1 ;
  48   1      
  49   1          L_redlight = 1 ;//没有上拉电阻后需要手动置高电平
  50   1          R_redlight = 1 ;
  51   1      
  52   1          P1ASF = 0x01 ;// ADC需要将P10设置为模拟输入模式
  53   1      
  54   1          MN_DSQ_init();//舵机用定时器初始化
C51 COMPILER V9.52.0.0   BZ                                                                10/12/2018 19:52:29 PAGE 2   

  55   1      }
  56          //####################################
  57          void main()
  58          {
  59   1          init();//全局初始化
  60   1          while(1)
  61   1          {
  62   2              REDLIGHT();//红外_转向
  63   2              // JD = (LVBUO()/1024.0) * 180 ;
  64   2              // SMG_SHOW(LVBUO());//数码管显示ADC转换结果
  65   2          //DJ_test();//舵机测试
  66   2          }
  67   1      }
  68          /*
  69          版本 1.0
  70          
  71          使用定时器T0产生周期20ms，脉宽0.5ms-2.5ms的方波控制舵机转向
  72          
  73          小车在下滑和无障碍滑行的时候：
  74          由于前方无障碍物触发左右两个红外传感器，所以进入测距归中模式，
  75          红外测距朝右边，距离大于110cm小车偏左，车轮右偏，距离大于90cm小车偏右，
  76          车轮左偏，保持在110和90范围内则车轮直行
  77          
  78          如果前方有障碍物：根据左右探头调节车轮偏向
  79          探头监测不到障碍物后说明避障成功，执行归中模式，将小车移回理想的中线上
  80          
  81          由此循环下去
  82          
  83          */
  84          


MODULE INFORMATION:   STATIC OVERLAYABLE
   CODE SIZE        =    497    ----
   CONSTANT SIZE    =   ----    ----
   XDATA SIZE       =   ----    ----
   PDATA SIZE       =   ----    ----
   DATA SIZE        =     36       8
   IDATA SIZE       =   ----    ----
   BIT SIZE         =   ----    ----
END OF MODULE INFORMATION.


C51 COMPILATION COMPLETE.  1 WARNING(S),  0 ERROR(S)
